{
  "contractName": "DSITest",
  "abi": [
    {
      "inputs": [],
      "stateMutability": "nonpayable",
      "type": "constructor"
    },
    {
      "inputs": [
        {
          "internalType": "bytes32",
          "name": "node",
          "type": "bytes32"
        }
      ],
      "name": "setDSIRecord",
      "outputs": [],
      "stateMutability": "nonpayable",
      "type": "function"
    },
    {
      "inputs": [
        {
          "internalType": "bytes32",
          "name": "node",
          "type": "bytes32"
        },
        {
          "internalType": "address",
          "name": "_owner",
          "type": "address"
        }
      ],
      "name": "setDSIOwner",
      "outputs": [],
      "stateMutability": "nonpayable",
      "type": "function"
    },
    {
      "inputs": [
        {
          "internalType": "bytes32",
          "name": "node",
          "type": "bytes32"
        }
      ],
      "name": "getOwner",
      "outputs": [
        {
          "internalType": "address",
          "name": "",
          "type": "address"
        }
      ],
      "stateMutability": "view",
      "type": "function"
    },
    {
      "inputs": [
        {
          "internalType": "bytes32",
          "name": "node",
          "type": "bytes32"
        }
      ],
      "name": "recordExists",
      "outputs": [
        {
          "internalType": "bool",
          "name": "",
          "type": "bool"
        }
      ],
      "stateMutability": "view",
      "type": "function"
    },
    {
      "inputs": [
        {
          "internalType": "bytes32",
          "name": "node",
          "type": "bytes32"
        },
        {
          "internalType": "string",
          "name": "key",
          "type": "string"
        },
        {
          "internalType": "string",
          "name": "value",
          "type": "string"
        }
      ],
      "name": "setText",
      "outputs": [],
      "stateMutability": "nonpayable",
      "type": "function"
    },
    {
      "inputs": [
        {
          "internalType": "bytes32",
          "name": "node",
          "type": "bytes32"
        },
        {
          "internalType": "string",
          "name": "key",
          "type": "string"
        }
      ],
      "name": "text",
      "outputs": [
        {
          "internalType": "string",
          "name": "",
          "type": "string"
        }
      ],
      "stateMutability": "view",
      "type": "function"
    },
    {
      "inputs": [
        {
          "internalType": "bytes32",
          "name": "node",
          "type": "bytes32"
        },
        {
          "internalType": "uint256",
          "name": "coinType",
          "type": "uint256"
        },
        {
          "internalType": "bytes",
          "name": "a",
          "type": "bytes"
        }
      ],
      "name": "setAddr",
      "outputs": [],
      "stateMutability": "nonpayable",
      "type": "function"
    },
    {
      "inputs": [
        {
          "internalType": "bytes32",
          "name": "node",
          "type": "bytes32"
        },
        {
          "internalType": "uint256",
          "name": "coinType",
          "type": "uint256"
        }
      ],
      "name": "addr",
      "outputs": [
        {
          "internalType": "address",
          "name": "",
          "type": "address"
        }
      ],
      "stateMutability": "view",
      "type": "function"
    }
  ],
  "bytecode": "0x608060405234801561001057600080fd5b50336000808060001b815260200190815260200160002060000160006101000a81548173ffffffffffffffffffffffffffffffffffffffff021916908373ffffffffffffffffffffffffffffffffffffffff160217905550610efa806100776000396000f3fe608060405234801561001057600080fd5b50600436106100885760003560e01c8063b6263d591161005b578063b6263d5914610111578063deb931a21461012d578063f1cb7e061461015d578063f79fe5381461018d57610088565b806310f13a8c1461008d57806359d1d43c146100a95780638b95dd71146100d95780639c621c7e146100f5575b600080fd5b6100a760048036038101906100a2919061092a565b6101bd565b005b6100c360048036038101906100be91906109bf565b6102b1565b6040516100d09190610ab8565b60405180910390f35b6100f360048036038101906100ee9190610c40565b610376565b005b61010f600480360381019061010a9190610caf565b610460565b005b61012b60048036038101906101269190610d3a565b61046d565b005b61014760048036038101906101429190610caf565b61057f565b6040516101549190610d89565b60405180910390f35b61017760048036038101906101729190610da4565b610602565b6040516101849190610d89565b60405180910390f35b6101a760048036038101906101a29190610caf565b6106c1565b6040516101b49190610dff565b60405180910390f35b84600080600083815260200190815260200160002060000160009054906101000a900473ffffffffffffffffffffffffffffffffffffffff1690503373ffffffffffffffffffffffffffffffffffffffff168173ffffffffffffffffffffffffffffffffffffffff16148061025e5750600073ffffffffffffffffffffffffffffffffffffffff168173ffffffffffffffffffffffffffffffffffffffff16145b61026757600080fd5b8383600160008a8152602001908152602001600020888860405161028c929190610e4a565b908152602001604051809103902091906102a7929190610752565b5050505050505050565b60606001600085815260200190815260200160002083836040516102d6929190610e4a565b908152602001604051809103902080546102ef90610e92565b80601f016020809104026020016040519081016040528092919081815260200182805461031b90610e92565b80156103685780601f1061033d57610100808354040283529160200191610368565b820191906000526020600020905b81548152906001019060200180831161034b57829003601f168201915b505050505090509392505050565b82600080600083815260200190815260200160002060000160009054906101000a900473ffffffffffffffffffffffffffffffffffffffff1690503373ffffffffffffffffffffffffffffffffffffffff168173ffffffffffffffffffffffffffffffffffffffff1614806104175750600073ffffffffffffffffffffffffffffffffffffffff168173ffffffffffffffffffffffffffffffffffffffff16145b61042057600080fd5b8260026000878152602001908152602001600020600086815260200190815260200160002090805190602001906104589291906107d8565b505050505050565b61046a813361046d565b50565b81600080600083815260200190815260200160002060000160009054906101000a900473ffffffffffffffffffffffffffffffffffffffff1690503373ffffffffffffffffffffffffffffffffffffffff168173ffffffffffffffffffffffffffffffffffffffff16148061050e5750600073ffffffffffffffffffffffffffffffffffffffff168173ffffffffffffffffffffffffffffffffffffffff16145b61051757600080fd5b610520846106c1565b610579578260008086815260200190815260200160002060000160006101000a81548173ffffffffffffffffffffffffffffffffffffffff021916908373ffffffffffffffffffffffffffffffffffffffff1602179055505b50505050565b60008060008084815260200190815260200160002060000160009054906101000a900473ffffffffffffffffffffffffffffffffffffffff1690503073ffffffffffffffffffffffffffffffffffffffff168173ffffffffffffffffffffffffffffffffffffffff1614156105f85760009150506105fd565b809150505b919050565b60006106b9600260008581526020019081526020016000206000848152602001908152602001600020805461063690610e92565b80601f016020809104026020016040519081016040528092919081815260200182805461066290610e92565b80156106af5780601f10610684576101008083540402835291602001916106af565b820191906000526020600020905b81548152906001019060200180831161069257829003601f168201915b505050505061072f565b905092915050565b60008073ffffffffffffffffffffffffffffffffffffffff1660008084815260200190815260200160002060000160009054906101000a900473ffffffffffffffffffffffffffffffffffffffff1673ffffffffffffffffffffffffffffffffffffffff1614159050919050565b6000601482511461073f57600080fd5b600c6101000a6020830151049050919050565b82805461075e90610e92565b90600052602060002090601f01602090048101928261078057600085556107c7565b82601f1061079957803560ff19168380011785556107c7565b828001600101855582156107c7579182015b828111156107c65782358255916020019190600101906107ab565b5b5090506107d4919061085e565b5090565b8280546107e490610e92565b90600052602060002090601f016020900481019282610806576000855561084d565b82601f1061081f57805160ff191683800117855561084d565b8280016001018555821561084d579182015b8281111561084c578251825591602001919060010190610831565b5b50905061085a919061085e565b5090565b5b8082111561087757600081600090555060010161085f565b5090565b6000604051905090565b600080fd5b600080fd5b6000819050919050565b6108a28161088f565b81146108ad57600080fd5b50565b6000813590506108bf81610899565b92915050565b600080fd5b600080fd5b600080fd5b60008083601f8401126108ea576108e96108c5565b5b8235905067ffffffffffffffff811115610907576109066108ca565b5b602083019150836001820283011115610923576109226108cf565b5b9250929050565b60008060008060006060868803121561094657610945610885565b5b6000610954888289016108b0565b955050602086013567ffffffffffffffff8111156109755761097461088a565b5b610981888289016108d4565b9450945050604086013567ffffffffffffffff8111156109a4576109a361088a565b5b6109b0888289016108d4565b92509250509295509295909350565b6000806000604084860312156109d8576109d7610885565b5b60006109e6868287016108b0565b935050602084013567ffffffffffffffff811115610a0757610a0661088a565b5b610a13868287016108d4565b92509250509250925092565b600081519050919050565b600082825260208201905092915050565b60005b83811015610a59578082015181840152602081019050610a3e565b83811115610a68576000848401525b50505050565b6000601f19601f8301169050919050565b6000610a8a82610a1f565b610a948185610a2a565b9350610aa4818560208601610a3b565b610aad81610a6e565b840191505092915050565b60006020820190508181036000830152610ad28184610a7f565b905092915050565b6000819050919050565b610aed81610ada565b8114610af857600080fd5b50565b600081359050610b0a81610ae4565b92915050565b600080fd5b7f4e487b7100000000000000000000000000000000000000000000000000000000600052604160045260246000fd5b610b4d82610a6e565b810181811067ffffffffffffffff82111715610b6c57610b6b610b15565b5b80604052505050565b6000610b7f61087b565b9050610b8b8282610b44565b919050565b600067ffffffffffffffff821115610bab57610baa610b15565b5b610bb482610a6e565b9050602081019050919050565b82818337600083830152505050565b6000610be3610bde84610b90565b610b75565b905082815260208101848484011115610bff57610bfe610b10565b5b610c0a848285610bc1565b509392505050565b600082601f830112610c2757610c266108c5565b5b8135610c37848260208601610bd0565b91505092915050565b600080600060608486031215610c5957610c58610885565b5b6000610c67868287016108b0565b9350506020610c7886828701610afb565b925050604084013567ffffffffffffffff811115610c9957610c9861088a565b5b610ca586828701610c12565b9150509250925092565b600060208284031215610cc557610cc4610885565b5b6000610cd3848285016108b0565b91505092915050565b600073ffffffffffffffffffffffffffffffffffffffff82169050919050565b6000610d0782610cdc565b9050919050565b610d1781610cfc565b8114610d2257600080fd5b50565b600081359050610d3481610d0e565b92915050565b60008060408385031215610d5157610d50610885565b5b6000610d5f858286016108b0565b9250506020610d7085828601610d25565b9150509250929050565b610d8381610cfc565b82525050565b6000602082019050610d9e6000830184610d7a565b92915050565b60008060408385031215610dbb57610dba610885565b5b6000610dc9858286016108b0565b9250506020610dda85828601610afb565b9150509250929050565b60008115159050919050565b610df981610de4565b82525050565b6000602082019050610e146000830184610df0565b92915050565b600081905092915050565b6000610e318385610e1a565b9350610e3e838584610bc1565b82840190509392505050565b6000610e57828486610e25565b91508190509392505050565b7f4e487b7100000000000000000000000000000000000000000000000000000000600052602260045260246000fd5b60006002820490506001821680610eaa57607f821691505b60208210811415610ebe57610ebd610e63565b5b5091905056fea26469706673582212208d3423dc9f48adeda9d4244e59dc720bc9c2fc86467fc99d29c1fc1c0ed98ae864736f6c634300080b0033",
  "immutableReferences": {},
  "source": "// SPDX-License-Identifier: MIT\npragma solidity >=0.8.4;\n\ncontract DSITest {\n\n    struct Record {\n        address owner;\n    }\n\n    mapping (bytes32 => Record) records;\n    mapping (bytes32 => mapping(string => string)) texts;\n    mapping (bytes32 => mapping(uint => bytes)) addresses;\n\n    modifier authorised(bytes32 node) {\n        address _owner = records[node].owner;\n        require(_owner == msg.sender || _owner == address(0x0));\n        _;\n    }\n\n    constructor() {\n        records[0x0].owner = msg.sender;\n    }\n\n\n    function setDSIRecord(bytes32 node) public {\n        setDSIOwner(node, msg.sender);\n    }\n\n    \n    function setDSIOwner(bytes32 node, address _owner) public authorised(node) {\n        if(!recordExists(node)){\n            records[node].owner = _owner;\n        }\n    }\n\n   \n    function getOwner(bytes32 node) public  view returns (address) {\n        address _addr = records[node].owner;\n        if (_addr == address(this)) {\n            return address(0x0);\n        }\n\n        return _addr;\n    }\n\n    \n    function recordExists(bytes32 node) public  view returns (bool) {\n        return records[node].owner != address(0x0);\n    }\n\n    function setText(bytes32 node, string calldata key, string calldata value) public authorised(node) {\n        texts[node][key] = value;\n    }\n\n    function text(bytes32 node, string calldata key) public view returns (string memory) {\n        return texts[node][key];\n    }\n\n    function setAddr(bytes32 node, uint coinType, bytes memory a) virtual public authorised(node) {\n        addresses[node][coinType] = a;\n    }\n\n    function addr(bytes32 node, uint coinType) virtual public view returns(address) {\n        return bytesToAddress(addresses[node][coinType]);\n    }\n\n    function bytesToAddress(bytes memory b) internal pure returns(address payable a) {\n        require(b.length == 20);\n        assembly {\n            a := div(mload(add(b, 32)), exp(256, 12))\n        }\n    }\n\n    function addressToBytes(address a) internal pure returns(bytes memory b) {\n        b = new bytes(20);\n        assembly {\n            mstore(add(b, 32), mul(a, exp(256, 12)))\n        }\n    }\n}",
  "sourcePath": "/Users/manidharkodurupaka/Documents/GitHub/ethglobalHack/contracts/DSITest.sol",
  "compiler": {
    "name": "solc",
    "version": "0.8.11+commit.d7f03943.Emscripten.clang"
  },
  "schemaVersion": "3.4.4",
  "updatedAt": "2022-02-06T17:30:57.788Z",
  "devdoc": {
    "kind": "dev",
    "methods": {},
    "version": 1
  },
  "userdoc": {
    "kind": "user",
    "methods": {},
    "version": 1
  }
}